{
  "_format": "hh-sol-artifact-1",
  "contractName": "Compliance",
  "sourceName": "contracts/Compliance.sol",
  "abi": [
    {
      "inputs": [
        {
          "internalType": "address",
          "name": "_admin",
          "type": "address"
        },
        {
          "internalType": "address",
          "name": "_identity",
          "type": "address"
        }
      ],
      "stateMutability": "nonpayable",
      "type": "constructor"
    },
    {
      "anonymous": false,
      "inputs": [
        {
          "indexed": true,
          "internalType": "address",
          "name": "newAdmin",
          "type": "address"
        }
      ],
      "name": "AdminChanged",
      "type": "event"
    },
    {
      "anonymous": false,
      "inputs": [
        {
          "indexed": false,
          "internalType": "uint256",
          "name": "code",
          "type": "uint256"
        },
        {
          "indexed": false,
          "internalType": "bool",
          "name": "allowed",
          "type": "bool"
        }
      ],
      "name": "JurisdictionAllowed",
      "type": "event"
    },
    {
      "anonymous": false,
      "inputs": [
        {
          "indexed": true,
          "internalType": "address",
          "name": "recipient",
          "type": "address"
        },
        {
          "indexed": false,
          "internalType": "bytes32",
          "name": "role",
          "type": "bytes32"
        }
      ],
      "name": "RequiredRoleSet",
      "type": "event"
    },
    {
      "anonymous": false,
      "inputs": [
        {
          "indexed": true,
          "internalType": "address",
          "name": "user",
          "type": "address"
        },
        {
          "indexed": false,
          "internalType": "uint256",
          "name": "until",
          "type": "uint256"
        }
      ],
      "name": "USLockupSet",
      "type": "event"
    },
    {
      "inputs": [],
      "name": "admin",
      "outputs": [
        {
          "internalType": "address",
          "name": "",
          "type": "address"
        }
      ],
      "stateMutability": "view",
      "type": "function"
    },
    {
      "inputs": [
        {
          "internalType": "uint256",
          "name": "code",
          "type": "uint256"
        },
        {
          "internalType": "bool",
          "name": "allowed",
          "type": "bool"
        }
      ],
      "name": "allowJurisdiction",
      "outputs": [],
      "stateMutability": "nonpayable",
      "type": "function"
    },
    {
      "inputs": [
        {
          "internalType": "uint256",
          "name": "",
          "type": "uint256"
        }
      ],
      "name": "allowedJurisdictions",
      "outputs": [
        {
          "internalType": "bool",
          "name": "",
          "type": "bool"
        }
      ],
      "stateMutability": "view",
      "type": "function"
    },
    {
      "inputs": [
        {
          "internalType": "address",
          "name": "from",
          "type": "address"
        },
        {
          "internalType": "address",
          "name": "to",
          "type": "address"
        },
        {
          "internalType": "uint256",
          "name": "",
          "type": "uint256"
        }
      ],
      "name": "canTransfer",
      "outputs": [
        {
          "internalType": "bool",
          "name": "",
          "type": "bool"
        },
        {
          "internalType": "string",
          "name": "",
          "type": "string"
        }
      ],
      "stateMutability": "view",
      "type": "function"
    },
    {
      "inputs": [],
      "name": "identity",
      "outputs": [
        {
          "internalType": "contract IIdentityRegistry",
          "name": "",
          "type": "address"
        }
      ],
      "stateMutability": "view",
      "type": "function"
    },
    {
      "inputs": [
        {
          "internalType": "address",
          "name": "",
          "type": "address"
        }
      ],
      "name": "requiredRoleForRecipient",
      "outputs": [
        {
          "internalType": "bytes32",
          "name": "",
          "type": "bytes32"
        }
      ],
      "stateMutability": "view",
      "type": "function"
    },
    {
      "inputs": [
        {
          "internalType": "address",
          "name": "_admin",
          "type": "address"
        }
      ],
      "name": "setAdmin",
      "outputs": [],
      "stateMutability": "nonpayable",
      "type": "function"
    },
    {
      "inputs": [
        {
          "internalType": "address",
          "name": "recipient",
          "type": "address"
        },
        {
          "internalType": "bytes32",
          "name": "role",
          "type": "bytes32"
        }
      ],
      "name": "setRequiredRoleForRecipient",
      "outputs": [],
      "stateMutability": "nonpayable",
      "type": "function"
    },
    {
      "inputs": [
        {
          "internalType": "address",
          "name": "user",
          "type": "address"
        },
        {
          "internalType": "uint256",
          "name": "until",
          "type": "uint256"
        }
      ],
      "name": "setUSLockup",
      "outputs": [],
      "stateMutability": "nonpayable",
      "type": "function"
    },
    {
      "inputs": [
        {
          "internalType": "address",
          "name": "",
          "type": "address"
        }
      ],
      "name": "usLockupUntil",
      "outputs": [
        {
          "internalType": "uint256",
          "name": "",
          "type": "uint256"
        }
      ],
      "stateMutability": "view",
      "type": "function"
    }
  ],
  "bytecode": "0x60806040523480156200001157600080fd5b50604051620013f6380380620013f683398181016040528101906200003791906200012a565b816000806101000a81548173ffffffffffffffffffffffffffffffffffffffff021916908373ffffffffffffffffffffffffffffffffffffffff16021790555080600160006101000a81548173ffffffffffffffffffffffffffffffffffffffff021916908373ffffffffffffffffffffffffffffffffffffffff160217905550505062000171565b600080fd5b600073ffffffffffffffffffffffffffffffffffffffff82169050919050565b6000620000f282620000c5565b9050919050565b6200010481620000e5565b81146200011057600080fd5b50565b6000815190506200012481620000f9565b92915050565b60008060408385031215620001445762000143620000c0565b5b6000620001548582860162000113565b9250506020620001678582860162000113565b9150509250929050565b61127580620001816000396000f3fe608060405234801561001057600080fd5b506004361061009e5760003560e01c8063a2355b8011610066578063a2355b8014610145578063a34bc32614610175578063e46638e6146101a5578063f0530038146101d6578063f851a440146101f25761009e565b80632c159a1a146100a35780635d911d17146100c1578063704b6c02146100dd57806371678162146100f9578063882d84be14610115575b600080fd5b6100ab610210565b6040516100b89190610cc8565b60405180910390f35b6100db60048036038101906100d69190610d5c565b610236565b005b6100f760048036038101906100f29190610d9c565b61035a565b005b610113600480360381019061010e9190610dff565b61046e565b005b61012f600480360381019061012a9190610e3f565b610592565b60405161013c9190610e87565b60405180910390f35b61015f600480360381019061015a9190610d9c565b6105b2565b60405161016c9190610eb1565b60405180910390f35b61018f600480360381019061018a9190610d9c565b6105ca565b60405161019c9190610edb565b60405180910390f35b6101bf60048036038101906101ba9190610ef6565b6105e2565b6040516101cd929190610fd9565b60405180910390f35b6101f060048036038101906101eb9190611035565b610b2f565b005b6101fa610c25565b6040516102079190611084565b60405180910390f35b600160009054906101000a900473ffffffffffffffffffffffffffffffffffffffff1681565b60008054906101000a900473ffffffffffffffffffffffffffffffffffffffff1673ffffffffffffffffffffffffffffffffffffffff163373ffffffffffffffffffffffffffffffffffffffff16146102c4576040517f08c379a00000000000000000000000000000000000000000000000000000000081526004016102bb906110eb565b60405180910390fd5b80600360008473ffffffffffffffffffffffffffffffffffffffff1673ffffffffffffffffffffffffffffffffffffffff168152602001908152602001600020819055508173ffffffffffffffffffffffffffffffffffffffff167fbbe1ab7139d9532039b948b7d4b2c573a5cc2067a816a6ef0c5b9bb50e6584508260405161034e9190610eb1565b60405180910390a25050565b60008054906101000a900473ffffffffffffffffffffffffffffffffffffffff1673ffffffffffffffffffffffffffffffffffffffff163373ffffffffffffffffffffffffffffffffffffffff16146103e8576040517f08c379a00000000000000000000000000000000000000000000000000000000081526004016103df906110eb565b60405180910390fd5b806000806101000a81548173ffffffffffffffffffffffffffffffffffffffff021916908373ffffffffffffffffffffffffffffffffffffffff1602179055508073ffffffffffffffffffffffffffffffffffffffff167f7ce7ec0b50378fb6c0186ffb5f48325f6593fcb4ca4386f21861af3129188f5c60405160405180910390a250565b60008054906101000a900473ffffffffffffffffffffffffffffffffffffffff1673ffffffffffffffffffffffffffffffffffffffff163373ffffffffffffffffffffffffffffffffffffffff16146104fc576040517f08c379a00000000000000000000000000000000000000000000000000000000081526004016104f3906110eb565b60405180910390fd5b80600460008473ffffffffffffffffffffffffffffffffffffffff1673ffffffffffffffffffffffffffffffffffffffff168152602001908152602001600020819055508173ffffffffffffffffffffffffffffffffffffffff167ffba50f6a106fde15d6230316c88482a486ea625f18e4d28ab9606bd9dec33ada826040516105869190610edb565b60405180910390a25050565b60026020528060005260406000206000915054906101000a900460ff1681565b60036020528060005260406000206000915090505481565b60046020528060005260406000206000915090505481565b60006060600160009054906101000a900473ffffffffffffffffffffffffffffffffffffffff1673ffffffffffffffffffffffffffffffffffffffff1663b9209e33866040518263ffffffff1660e01b81526004016106419190611084565b602060405180830381865afa15801561065e573d6000803e3d6000fd5b505050506040513d601f19601f820116820180604052508101906106829190611120565b6106c75760006040518060400160405280602081526020017f4b59433a2073656e646572206e6f742076657269666965642f6578706972656481525091509150610b27565b600160009054906101000a900473ffffffffffffffffffffffffffffffffffffffff1673ffffffffffffffffffffffffffffffffffffffff1663b9209e33856040518263ffffffff1660e01b81526004016107229190611084565b602060405180830381865afa15801561073f573d6000803e3d6000fd5b505050506040513d601f19601f820116820180604052508101906107639190611120565b61078b5760006040518060600160405280602381526020016111fb6023913991509150610b27565b6000600160009054906101000a900473ffffffffffffffffffffffffffffffffffffffff1673ffffffffffffffffffffffffffffffffffffffff1663ed9c3310876040518263ffffffff1660e01b81526004016107e89190611084565b602060405180830381865afa158015610805573d6000803e3d6000fd5b505050506040513d601f19601f820116820180604052508101906108299190611162565b90506000600160009054906101000a900473ffffffffffffffffffffffffffffffffffffffff1673ffffffffffffffffffffffffffffffffffffffff1663ed9c3310876040518263ffffffff1660e01b81526004016108889190611084565b602060405180830381865afa1580156108a5573d6000803e3d6000fd5b505050506040513d601f19601f820116820180604052508101906108c99190611162565b90506002600083815260200190815260200160002060009054906101000a900460ff16158061091657506002600082815260200190815260200160002060009054906101000a900460ff16155b1561095e5760006040518060400160405280601981526020017f4a5552495344494354494f4e3a206e6f7420616c6c6f77656400000000000000815250935093505050610b27565b610348821480156109ad5750600360008873ffffffffffffffffffffffffffffffffffffffff1673ffffffffffffffffffffffffffffffffffffffff1681526020019081526020016000205442105b156109f55760006040518060400160405280601b81526020017f4c4f434b55503a2055532073656e64657220696e206c6f636b75700000000000815250935093505050610b27565b6000600460008873ffffffffffffffffffffffffffffffffffffffff1673ffffffffffffffffffffffffffffffffffffffff1681526020019081526020016000205490506000801b8114610b0d5780600160009054906101000a900473ffffffffffffffffffffffffffffffffffffffff1673ffffffffffffffffffffffffffffffffffffffff166344276733896040518263ffffffff1660e01b8152600401610a9f9190611084565b602060405180830381865afa158015610abc573d6000803e3d6000fd5b505050506040513d601f19601f82011682018060405250810190610ae091906111a4565b14610b0c57600060405180606001604052806022815260200161121e6022913994509450505050610b27565b5b600160405180602001604052806000815250945094505050505b935093915050565b60008054906101000a900473ffffffffffffffffffffffffffffffffffffffff1673ffffffffffffffffffffffffffffffffffffffff163373ffffffffffffffffffffffffffffffffffffffff1614610bbd576040517f08c379a0000000000000000000000000000000000000000000000000000000008152600401610bb4906110eb565b60405180910390fd5b806002600084815260200190815260200160002060006101000a81548160ff0219169083151502179055507f646c6a3b560e22ef1e4188e22d9c23628f3ea9ee893394e11e9a81854b1ee4568282604051610c199291906111d1565b60405180910390a15050565b60008054906101000a900473ffffffffffffffffffffffffffffffffffffffff1681565b600073ffffffffffffffffffffffffffffffffffffffff82169050919050565b6000819050919050565b6000610c8e610c89610c8484610c49565b610c69565b610c49565b9050919050565b6000610ca082610c73565b9050919050565b6000610cb282610c95565b9050919050565b610cc281610ca7565b82525050565b6000602082019050610cdd6000830184610cb9565b92915050565b600080fd5b6000610cf382610c49565b9050919050565b610d0381610ce8565b8114610d0e57600080fd5b50565b600081359050610d2081610cfa565b92915050565b6000819050919050565b610d3981610d26565b8114610d4457600080fd5b50565b600081359050610d5681610d30565b92915050565b60008060408385031215610d7357610d72610ce3565b5b6000610d8185828601610d11565b9250506020610d9285828601610d47565b9150509250929050565b600060208284031215610db257610db1610ce3565b5b6000610dc084828501610d11565b91505092915050565b6000819050919050565b610ddc81610dc9565b8114610de757600080fd5b50565b600081359050610df981610dd3565b92915050565b60008060408385031215610e1657610e15610ce3565b5b6000610e2485828601610d11565b9250506020610e3585828601610dea565b9150509250929050565b600060208284031215610e5557610e54610ce3565b5b6000610e6384828501610d47565b91505092915050565b60008115159050919050565b610e8181610e6c565b82525050565b6000602082019050610e9c6000830184610e78565b92915050565b610eab81610d26565b82525050565b6000602082019050610ec66000830184610ea2565b92915050565b610ed581610dc9565b82525050565b6000602082019050610ef06000830184610ecc565b92915050565b600080600060608486031215610f0f57610f0e610ce3565b5b6000610f1d86828701610d11565b9350506020610f2e86828701610d11565b9250506040610f3f86828701610d47565b9150509250925092565b600081519050919050565b600082825260208201905092915050565b60005b83811015610f83578082015181840152602081019050610f68565b60008484015250505050565b6000601f19601f8301169050919050565b6000610fab82610f49565b610fb58185610f54565b9350610fc5818560208601610f65565b610fce81610f8f565b840191505092915050565b6000604082019050610fee6000830185610e78565b81810360208301526110008184610fa0565b90509392505050565b61101281610e6c565b811461101d57600080fd5b50565b60008135905061102f81611009565b92915050565b6000806040838503121561104c5761104b610ce3565b5b600061105a85828601610d47565b925050602061106b85828601611020565b9150509250929050565b61107e81610ce8565b82525050565b60006020820190506110996000830184611075565b92915050565b7f436f6d706c69616e63653a206e6f742061646d696e0000000000000000000000600082015250565b60006110d5601583610f54565b91506110e08261109f565b602082019050919050565b60006020820190508181036000830152611104816110c8565b9050919050565b60008151905061111a81611009565b92915050565b60006020828403121561113657611135610ce3565b5b60006111448482850161110b565b91505092915050565b60008151905061115c81610d30565b92915050565b60006020828403121561117857611177610ce3565b5b60006111868482850161114d565b91505092915050565b60008151905061119e81610dd3565b92915050565b6000602082840312156111ba576111b9610ce3565b5b60006111c88482850161118f565b91505092915050565b60006040820190506111e66000830185610ea2565b6111f36020830184610e78565b939250505056fe4b59433a20726563697069656e74206e6f742076657269666965642f65787069726564524f4c453a20726563697069656e7420726f6c65206e6f7420736174697366696564a2646970667358221220290e11f4eb68473a65bb9fb4922df8b8ec24090304c10b421f56e3cbe17dd03b64736f6c63430008180033",
  "linkReferences": {},
  "deployedLinkReferences": {}
}