{
  "_format": "hh-sol-artifact-1",
  "contractName": "IdentityRegistry",
  "sourceName": "contracts/IdentityRegistry.sol",
  "abi": [
    {
      "inputs": [
        {
          "internalType": "address",
          "name": "_admin",
          "type": "address"
        }
      ],
      "stateMutability": "nonpayable",
      "type": "constructor"
    },
    {
      "anonymous": false,
      "inputs": [
        {
          "indexed": true,
          "internalType": "address",
          "name": "user",
          "type": "address"
        },
        {
          "indexed": false,
          "internalType": "bool",
          "name": "isVerified",
          "type": "bool"
        },
        {
          "indexed": false,
          "internalType": "uint256",
          "name": "jurisdiction",
          "type": "uint256"
        },
        {
          "indexed": false,
          "internalType": "bytes32",
          "name": "role",
          "type": "bytes32"
        },
        {
          "indexed": false,
          "internalType": "uint64",
          "name": "validUntil",
          "type": "uint64"
        }
      ],
      "name": "IdentityUpdated",
      "type": "event"
    },
    {
      "inputs": [],
      "name": "admin",
      "outputs": [
        {
          "internalType": "address",
          "name": "",
          "type": "address"
        }
      ],
      "stateMutability": "view",
      "type": "function"
    },
    {
      "inputs": [
        {
          "internalType": "address",
          "name": "user",
          "type": "address"
        }
      ],
      "name": "getIdentity",
      "outputs": [
        {
          "components": [
            {
              "internalType": "bool",
              "name": "isVerified",
              "type": "bool"
            },
            {
              "internalType": "uint256",
              "name": "jurisdiction",
              "type": "uint256"
            },
            {
              "internalType": "bytes32",
              "name": "role",
              "type": "bytes32"
            },
            {
              "internalType": "uint64",
              "name": "validUntil",
              "type": "uint64"
            }
          ],
          "internalType": "struct IdentityRegistry.Identity",
          "name": "",
          "type": "tuple"
        }
      ],
      "stateMutability": "view",
      "type": "function"
    },
    {
      "inputs": [
        {
          "internalType": "address",
          "name": "user",
          "type": "address"
        }
      ],
      "name": "getJurisdiction",
      "outputs": [
        {
          "internalType": "uint256",
          "name": "",
          "type": "uint256"
        }
      ],
      "stateMutability": "view",
      "type": "function"
    },
    {
      "inputs": [
        {
          "internalType": "address",
          "name": "user",
          "type": "address"
        }
      ],
      "name": "getRole",
      "outputs": [
        {
          "internalType": "bytes32",
          "name": "",
          "type": "bytes32"
        }
      ],
      "stateMutability": "view",
      "type": "function"
    },
    {
      "inputs": [
        {
          "internalType": "address",
          "name": "user",
          "type": "address"
        }
      ],
      "name": "isVerified",
      "outputs": [
        {
          "internalType": "bool",
          "name": "",
          "type": "bool"
        }
      ],
      "stateMutability": "view",
      "type": "function"
    },
    {
      "inputs": [
        {
          "internalType": "address",
          "name": "_admin",
          "type": "address"
        }
      ],
      "name": "setAdmin",
      "outputs": [],
      "stateMutability": "nonpayable",
      "type": "function"
    },
    {
      "inputs": [
        {
          "internalType": "address",
          "name": "user",
          "type": "address"
        },
        {
          "internalType": "bool",
          "name": "isVerified",
          "type": "bool"
        },
        {
          "internalType": "uint256",
          "name": "jurisdiction",
          "type": "uint256"
        },
        {
          "internalType": "bytes32",
          "name": "role",
          "type": "bytes32"
        },
        {
          "internalType": "uint64",
          "name": "validUntil",
          "type": "uint64"
        }
      ],
      "name": "setIdentity",
      "outputs": [],
      "stateMutability": "nonpayable",
      "type": "function"
    }
  ],
  "bytecode": "0x608060405234801561001057600080fd5b50604051610c09380380610c09833981810160405281019061003291906100db565b806000806101000a81548173ffffffffffffffffffffffffffffffffffffffff021916908373ffffffffffffffffffffffffffffffffffffffff16021790555050610108565b600080fd5b600073ffffffffffffffffffffffffffffffffffffffff82169050919050565b60006100a88261007d565b9050919050565b6100b88161009d565b81146100c357600080fd5b50565b6000815190506100d5816100af565b92915050565b6000602082840312156100f1576100f0610078565b5b60006100ff848285016100c6565b91505092915050565b610af2806101176000396000f3fe608060405234801561001057600080fd5b506004361061007d5760003560e01c8063b9209e331161005b578063b9209e33146100fe578063ed5e340b1461012e578063ed9c33101461014a578063f851a4401461017a5761007d565b80632fea7b811461008257806344276733146100b2578063704b6c02146100e2575b600080fd5b61009c6004803603810190610097919061070b565b610198565b6040516100a991906107fd565b60405180910390f35b6100cc60048036038101906100c7919061070b565b610252565b6040516100d99190610827565b60405180910390f35b6100fc60048036038101906100f7919061070b565b61029e565b005b6101186004803603810190610113919061070b565b61036f565b6040516101259190610851565b60405180910390f35b6101486004803603810190610143919061091c565b610446565b005b610164600480360381019061015f919061070b565b610601565b60405161017191906109a6565b60405180910390f35b61018261064d565b60405161018f91906109d0565b60405180910390f35b6101a0610671565b600160008373ffffffffffffffffffffffffffffffffffffffff1673ffffffffffffffffffffffffffffffffffffffff1681526020019081526020016000206040518060800160405290816000820160009054906101000a900460ff1615151515815260200160018201548152602001600282015481526020016003820160009054906101000a900467ffffffffffffffff1667ffffffffffffffff1667ffffffffffffffff16815250509050919050565b6000600160008373ffffffffffffffffffffffffffffffffffffffff1673ffffffffffffffffffffffffffffffffffffffff168152602001908152602001600020600201549050919050565b60008054906101000a900473ffffffffffffffffffffffffffffffffffffffff1673ffffffffffffffffffffffffffffffffffffffff163373ffffffffffffffffffffffffffffffffffffffff161461032c576040517f08c379a000000000000000000000000000000000000000000000000000000000815260040161032390610a48565b60405180910390fd5b806000806101000a81548173ffffffffffffffffffffffffffffffffffffffff021916908373ffffffffffffffffffffffffffffffffffffffff16021790555050565b600080600160008473ffffffffffffffffffffffffffffffffffffffff1673ffffffffffffffffffffffffffffffffffffffff1681526020019081526020016000206040518060800160405290816000820160009054906101000a900460ff1615151515815260200160018201548152602001600282015481526020016003820160009054906101000a900467ffffffffffffffff1667ffffffffffffffff1667ffffffffffffffff168152505090508060000151801561043e5750806060015167ffffffffffffffff164211155b915050919050565b60008054906101000a900473ffffffffffffffffffffffffffffffffffffffff1673ffffffffffffffffffffffffffffffffffffffff163373ffffffffffffffffffffffffffffffffffffffff16146104d4576040517f08c379a00000000000000000000000000000000000000000000000000000000081526004016104cb90610a48565b60405180910390fd5b604051806080016040528085151581526020018481526020018381526020018267ffffffffffffffff16815250600160008773ffffffffffffffffffffffffffffffffffffffff1673ffffffffffffffffffffffffffffffffffffffff16815260200190815260200160002060008201518160000160006101000a81548160ff021916908315150217905550602082015181600101556040820151816002015560608201518160030160006101000a81548167ffffffffffffffff021916908367ffffffffffffffff1602179055509050508473ffffffffffffffffffffffffffffffffffffffff167f6dc5887ecc986b8f4df3d63e4b693a294893cfd23f479c1f4765c211498e9014858585856040516105f29493929190610a77565b60405180910390a25050505050565b6000600160008373ffffffffffffffffffffffffffffffffffffffff1673ffffffffffffffffffffffffffffffffffffffff168152602001908152602001600020600101549050919050565b60008054906101000a900473ffffffffffffffffffffffffffffffffffffffff1681565b60405180608001604052806000151581526020016000815260200160008019168152602001600067ffffffffffffffff1681525090565b600080fd5b600073ffffffffffffffffffffffffffffffffffffffff82169050919050565b60006106d8826106ad565b9050919050565b6106e8816106cd565b81146106f357600080fd5b50565b600081359050610705816106df565b92915050565b600060208284031215610721576107206106a8565b5b600061072f848285016106f6565b91505092915050565b60008115159050919050565b61074d81610738565b82525050565b6000819050919050565b61076681610753565b82525050565b6000819050919050565b61077f8161076c565b82525050565b600067ffffffffffffffff82169050919050565b6107a281610785565b82525050565b6080820160008201516107be6000850182610744565b5060208201516107d1602085018261075d565b5060408201516107e46040850182610776565b5060608201516107f76060850182610799565b50505050565b600060808201905061081260008301846107a8565b92915050565b6108218161076c565b82525050565b600060208201905061083c6000830184610818565b92915050565b61084b81610738565b82525050565b60006020820190506108666000830184610842565b92915050565b61087581610738565b811461088057600080fd5b50565b6000813590506108928161086c565b92915050565b6108a181610753565b81146108ac57600080fd5b50565b6000813590506108be81610898565b92915050565b6108cd8161076c565b81146108d857600080fd5b50565b6000813590506108ea816108c4565b92915050565b6108f981610785565b811461090457600080fd5b50565b600081359050610916816108f0565b92915050565b600080600080600060a08688031215610938576109376106a8565b5b6000610946888289016106f6565b955050602061095788828901610883565b9450506040610968888289016108af565b9350506060610979888289016108db565b925050608061098a88828901610907565b9150509295509295909350565b6109a081610753565b82525050565b60006020820190506109bb6000830184610997565b92915050565b6109ca816106cd565b82525050565b60006020820190506109e560008301846109c1565b92915050565b600082825260208201905092915050565b7f49523a206e6f742061646d696e00000000000000000000000000000000000000600082015250565b6000610a32600d836109eb565b9150610a3d826109fc565b602082019050919050565b60006020820190508181036000830152610a6181610a25565b9050919050565b610a7181610785565b82525050565b6000608082019050610a8c6000830187610842565b610a996020830186610997565b610aa66040830185610818565b610ab36060830184610a68565b9594505050505056fea2646970667358221220b47c24242dc3f6fbb227308248ddfbd91479d0dacae8d85e62cbc5e84946879464736f6c63430008180033",
  "linkReferences": {},
  "deployedLinkReferences": {}
}