{
  "_format": "hh-sol-artifact-1",
  "contractName": "SecurityToken",
  "sourceName": "contracts/SecurityToken.sol",
  "abi": [
    {
      "inputs": [
        {
          "internalType": "string",
          "name": "name_",
          "type": "string"
        },
        {
          "internalType": "string",
          "name": "symbol_",
          "type": "string"
        },
        {
          "internalType": "address",
          "name": "admin_",
          "type": "address"
        },
        {
          "internalType": "address",
          "name": "compliance_",
          "type": "address"
        }
      ],
      "stateMutability": "nonpayable",
      "type": "constructor"
    },
    {
      "inputs": [],
      "name": "AccessControlBadConfirmation",
      "type": "error"
    },
    {
      "inputs": [
        {
          "internalType": "address",
          "name": "account",
          "type": "address"
        },
        {
          "internalType": "bytes32",
          "name": "neededRole",
          "type": "bytes32"
        }
      ],
      "name": "AccessControlUnauthorizedAccount",
      "type": "error"
    },
    {
      "inputs": [
        {
          "internalType": "address",
          "name": "spender",
          "type": "address"
        },
        {
          "internalType": "uint256",
          "name": "allowance",
          "type": "uint256"
        },
        {
          "internalType": "uint256",
          "name": "needed",
          "type": "uint256"
        }
      ],
      "name": "ERC20InsufficientAllowance",
      "type": "error"
    },
    {
      "inputs": [
        {
          "internalType": "address",
          "name": "sender",
          "type": "address"
        },
        {
          "internalType": "uint256",
          "name": "balance",
          "type": "uint256"
        },
        {
          "internalType": "uint256",
          "name": "needed",
          "type": "uint256"
        }
      ],
      "name": "ERC20InsufficientBalance",
      "type": "error"
    },
    {
      "inputs": [
        {
          "internalType": "address",
          "name": "approver",
          "type": "address"
        }
      ],
      "name": "ERC20InvalidApprover",
      "type": "error"
    },
    {
      "inputs": [
        {
          "internalType": "address",
          "name": "receiver",
          "type": "address"
        }
      ],
      "name": "ERC20InvalidReceiver",
      "type": "error"
    },
    {
      "inputs": [
        {
          "internalType": "address",
          "name": "sender",
          "type": "address"
        }
      ],
      "name": "ERC20InvalidSender",
      "type": "error"
    },
    {
      "inputs": [
        {
          "internalType": "address",
          "name": "spender",
          "type": "address"
        }
      ],
      "name": "ERC20InvalidSpender",
      "type": "error"
    },
    {
      "anonymous": false,
      "inputs": [
        {
          "indexed": true,
          "internalType": "address",
          "name": "owner",
          "type": "address"
        },
        {
          "indexed": true,
          "internalType": "address",
          "name": "spender",
          "type": "address"
        },
        {
          "indexed": false,
          "internalType": "uint256",
          "name": "value",
          "type": "uint256"
        }
      ],
      "name": "Approval",
      "type": "event"
    },
    {
      "anonymous": false,
      "inputs": [
        {
          "indexed": true,
          "internalType": "address",
          "name": "newCompliance",
          "type": "address"
        }
      ],
      "name": "ComplianceChanged",
      "type": "event"
    },
    {
      "anonymous": false,
      "inputs": [
        {
          "indexed": true,
          "internalType": "bytes32",
          "name": "role",
          "type": "bytes32"
        },
        {
          "indexed": true,
          "internalType": "bytes32",
          "name": "previousAdminRole",
          "type": "bytes32"
        },
        {
          "indexed": true,
          "internalType": "bytes32",
          "name": "newAdminRole",
          "type": "bytes32"
        }
      ],
      "name": "RoleAdminChanged",
      "type": "event"
    },
    {
      "anonymous": false,
      "inputs": [
        {
          "indexed": true,
          "internalType": "bytes32",
          "name": "role",
          "type": "bytes32"
        },
        {
          "indexed": true,
          "internalType": "address",
          "name": "account",
          "type": "address"
        },
        {
          "indexed": true,
          "internalType": "address",
          "name": "sender",
          "type": "address"
        }
      ],
      "name": "RoleGranted",
      "type": "event"
    },
    {
      "anonymous": false,
      "inputs": [
        {
          "indexed": true,
          "internalType": "bytes32",
          "name": "role",
          "type": "bytes32"
        },
        {
          "indexed": true,
          "internalType": "address",
          "name": "account",
          "type": "address"
        },
        {
          "indexed": true,
          "internalType": "address",
          "name": "sender",
          "type": "address"
        }
      ],
      "name": "RoleRevoked",
      "type": "event"
    },
    {
      "anonymous": false,
      "inputs": [
        {
          "indexed": true,
          "internalType": "address",
          "name": "from",
          "type": "address"
        },
        {
          "indexed": true,
          "internalType": "address",
          "name": "to",
          "type": "address"
        },
        {
          "indexed": false,
          "internalType": "uint256",
          "name": "value",
          "type": "uint256"
        }
      ],
      "name": "Transfer",
      "type": "event"
    },
    {
      "inputs": [],
      "name": "DEFAULT_ADMIN_ROLE",
      "outputs": [
        {
          "internalType": "bytes32",
          "name": "",
          "type": "bytes32"
        }
      ],
      "stateMutability": "view",
      "type": "function"
    },
    {
      "inputs": [],
      "name": "TRANSFER_AGENT_ROLE",
      "outputs": [
        {
          "internalType": "bytes32",
          "name": "",
          "type": "bytes32"
        }
      ],
      "stateMutability": "view",
      "type": "function"
    },
    {
      "inputs": [
        {
          "internalType": "address",
          "name": "owner",
          "type": "address"
        },
        {
          "internalType": "address",
          "name": "spender",
          "type": "address"
        }
      ],
      "name": "allowance",
      "outputs": [
        {
          "internalType": "uint256",
          "name": "",
          "type": "uint256"
        }
      ],
      "stateMutability": "view",
      "type": "function"
    },
    {
      "inputs": [
        {
          "internalType": "address",
          "name": "spender",
          "type": "address"
        },
        {
          "internalType": "uint256",
          "name": "value",
          "type": "uint256"
        }
      ],
      "name": "approve",
      "outputs": [
        {
          "internalType": "bool",
          "name": "",
          "type": "bool"
        }
      ],
      "stateMutability": "nonpayable",
      "type": "function"
    },
    {
      "inputs": [
        {
          "internalType": "address",
          "name": "account",
          "type": "address"
        }
      ],
      "name": "balanceOf",
      "outputs": [
        {
          "internalType": "uint256",
          "name": "",
          "type": "uint256"
        }
      ],
      "stateMutability": "view",
      "type": "function"
    },
    {
      "inputs": [
        {
          "internalType": "address",
          "name": "from",
          "type": "address"
        },
        {
          "internalType": "uint256",
          "name": "amount",
          "type": "uint256"
        }
      ],
      "name": "burn",
      "outputs": [],
      "stateMutability": "nonpayable",
      "type": "function"
    },
    {
      "inputs": [],
      "name": "compliance",
      "outputs": [
        {
          "internalType": "contract ICompliance",
          "name": "",
          "type": "address"
        }
      ],
      "stateMutability": "view",
      "type": "function"
    },
    {
      "inputs": [],
      "name": "decimals",
      "outputs": [
        {
          "internalType": "uint8",
          "name": "",
          "type": "uint8"
        }
      ],
      "stateMutability": "view",
      "type": "function"
    },
    {
      "inputs": [
        {
          "internalType": "bytes32",
          "name": "role",
          "type": "bytes32"
        }
      ],
      "name": "getRoleAdmin",
      "outputs": [
        {
          "internalType": "bytes32",
          "name": "",
          "type": "bytes32"
        }
      ],
      "stateMutability": "view",
      "type": "function"
    },
    {
      "inputs": [
        {
          "internalType": "bytes32",
          "name": "role",
          "type": "bytes32"
        },
        {
          "internalType": "address",
          "name": "account",
          "type": "address"
        }
      ],
      "name": "grantRole",
      "outputs": [],
      "stateMutability": "nonpayable",
      "type": "function"
    },
    {
      "inputs": [
        {
          "internalType": "bytes32",
          "name": "role",
          "type": "bytes32"
        },
        {
          "internalType": "address",
          "name": "account",
          "type": "address"
        }
      ],
      "name": "hasRole",
      "outputs": [
        {
          "internalType": "bool",
          "name": "",
          "type": "bool"
        }
      ],
      "stateMutability": "view",
      "type": "function"
    },
    {
      "inputs": [
        {
          "internalType": "address",
          "name": "to",
          "type": "address"
        },
        {
          "internalType": "uint256",
          "name": "amount",
          "type": "uint256"
        }
      ],
      "name": "mint",
      "outputs": [],
      "stateMutability": "nonpayable",
      "type": "function"
    },
    {
      "inputs": [],
      "name": "name",
      "outputs": [
        {
          "internalType": "string",
          "name": "",
          "type": "string"
        }
      ],
      "stateMutability": "view",
      "type": "function"
    },
    {
      "inputs": [
        {
          "internalType": "bytes32",
          "name": "role",
          "type": "bytes32"
        },
        {
          "internalType": "address",
          "name": "callerConfirmation",
          "type": "address"
        }
      ],
      "name": "renounceRole",
      "outputs": [],
      "stateMutability": "nonpayable",
      "type": "function"
    },
    {
      "inputs": [
        {
          "internalType": "bytes32",
          "name": "role",
          "type": "bytes32"
        },
        {
          "internalType": "address",
          "name": "account",
          "type": "address"
        }
      ],
      "name": "revokeRole",
      "outputs": [],
      "stateMutability": "nonpayable",
      "type": "function"
    },
    {
      "inputs": [
        {
          "internalType": "address",
          "name": "newCompliance",
          "type": "address"
        }
      ],
      "name": "setCompliance",
      "outputs": [],
      "stateMutability": "nonpayable",
      "type": "function"
    },
    {
      "inputs": [
        {
          "internalType": "bytes4",
          "name": "interfaceId",
          "type": "bytes4"
        }
      ],
      "name": "supportsInterface",
      "outputs": [
        {
          "internalType": "bool",
          "name": "",
          "type": "bool"
        }
      ],
      "stateMutability": "view",
      "type": "function"
    },
    {
      "inputs": [],
      "name": "symbol",
      "outputs": [
        {
          "internalType": "string",
          "name": "",
          "type": "string"
        }
      ],
      "stateMutability": "view",
      "type": "function"
    },
    {
      "inputs": [],
      "name": "totalSupply",
      "outputs": [
        {
          "internalType": "uint256",
          "name": "",
          "type": "uint256"
        }
      ],
      "stateMutability": "view",
      "type": "function"
    },
    {
      "inputs": [
        {
          "internalType": "address",
          "name": "to",
          "type": "address"
        },
        {
          "internalType": "uint256",
          "name": "value",
          "type": "uint256"
        }
      ],
      "name": "transfer",
      "outputs": [
        {
          "internalType": "bool",
          "name": "",
          "type": "bool"
        }
      ],
      "stateMutability": "nonpayable",
      "type": "function"
    },
    {
      "inputs": [
        {
          "internalType": "address",
          "name": "from",
          "type": "address"
        },
        {
          "internalType": "address",
          "name": "to",
          "type": "address"
        },
        {
          "internalType": "uint256",
          "name": "value",
          "type": "uint256"
        }
      ],
      "name": "transferFrom",
      "outputs": [
        {
          "internalType": "bool",
          "name": "",
          "type": "bool"
        }
      ],
      "stateMutability": "nonpayable",
      "type": "function"
    }
  ],
  "bytecode": "0x60806040523480156200001157600080fd5b506040516200250f3803806200250f833981810160405281019062000037919062000462565b838381600390816200004a91906200075d565b5080600490816200005c91906200075d565b505050620000746000801b83620000f360201b60201c565b50620000a77f90601cb45097851a246a5f8a72fbb27b3ef393b2a92d8fdd7aa24b1be6b2ed3b83620000f360201b60201c565b5080600660006101000a81548173ffffffffffffffffffffffffffffffffffffffff021916908373ffffffffffffffffffffffffffffffffffffffff1602179055505050505062000844565b6000620001078383620001f760201b60201c565b620001ec5760016005600085815260200190815260200160002060000160008473ffffffffffffffffffffffffffffffffffffffff1673ffffffffffffffffffffffffffffffffffffffff16815260200190815260200160002060006101000a81548160ff021916908315150217905550620001886200026260201b60201c565b73ffffffffffffffffffffffffffffffffffffffff168273ffffffffffffffffffffffffffffffffffffffff16847f2f8788117e7eff1d82e926ec794901d17c78024a50270940304540a733656f0d60405160405180910390a460019050620001f1565b600090505b92915050565b60006005600084815260200190815260200160002060000160008373ffffffffffffffffffffffffffffffffffffffff1673ffffffffffffffffffffffffffffffffffffffff16815260200190815260200160002060009054906101000a900460ff16905092915050565b600033905090565b6000604051905090565b600080fd5b600080fd5b600080fd5b600080fd5b6000601f19601f8301169050919050565b7f4e487b7100000000000000000000000000000000000000000000000000000000600052604160045260246000fd5b620002d38262000288565b810181811067ffffffffffffffff82111715620002f557620002f462000299565b5b80604052505050565b60006200030a6200026a565b9050620003188282620002c8565b919050565b600067ffffffffffffffff8211156200033b576200033a62000299565b5b620003468262000288565b9050602081019050919050565b60005b838110156200037357808201518184015260208101905062000356565b60008484015250505050565b60006200039662000390846200031d565b620002fe565b905082815260208101848484011115620003b557620003b462000283565b5b620003c284828562000353565b509392505050565b600082601f830112620003e257620003e16200027e565b5b8151620003f48482602086016200037f565b91505092915050565b600073ffffffffffffffffffffffffffffffffffffffff82169050919050565b60006200042a82620003fd565b9050919050565b6200043c816200041d565b81146200044857600080fd5b50565b6000815190506200045c8162000431565b92915050565b600080600080608085870312156200047f576200047e62000274565b5b600085015167ffffffffffffffff811115620004a0576200049f62000279565b5b620004ae87828801620003ca565b945050602085015167ffffffffffffffff811115620004d257620004d162000279565b5b620004e087828801620003ca565b9350506040620004f3878288016200044b565b925050606062000506878288016200044b565b91505092959194509250565b600081519050919050565b7f4e487b7100000000000000000000000000000000000000000000000000000000600052602260045260246000fd5b600060028204905060018216806200056557607f821691505b6020821081036200057b576200057a6200051d565b5b50919050565b60008190508160005260206000209050919050565b60006020601f8301049050919050565b600082821b905092915050565b600060088302620005e57fffffffffffffffffffffffffffffffffffffffffffffffffffffffffffffffff82620005a6565b620005f18683620005a6565b95508019841693508086168417925050509392505050565b6000819050919050565b6000819050919050565b60006200063e62000638620006328462000609565b62000613565b62000609565b9050919050565b6000819050919050565b6200065a836200061d565b62000672620006698262000645565b848454620005b3565b825550505050565b600090565b620006896200067a565b620006968184846200064f565b505050565b5b81811015620006be57620006b26000826200067f565b6001810190506200069c565b5050565b601f8211156200070d57620006d78162000581565b620006e28462000596565b81016020851015620006f2578190505b6200070a620007018562000596565b8301826200069b565b50505b505050565b600082821c905092915050565b6000620007326000198460080262000712565b1980831691505092915050565b60006200074d83836200071f565b9150826002028217905092915050565b620007688262000512565b67ffffffffffffffff81111562000784576200078362000299565b5b6200079082546200054c565b6200079d828285620006c2565b600060209050601f831160018114620007d55760008415620007c0578287015190505b620007cc85826200073f565b8655506200083c565b601f198416620007e58662000581565b60005b828110156200080f57848901518255600182019150602085019450602081019050620007e8565b868310156200082f57848901516200082b601f8916826200071f565b8355505b6001600288020188555050505b505050505050565b611cbb80620008546000396000f3fe608060405234801561001057600080fd5b50600436106101375760003560e01c80636290865d116100b8578063a217fddf1161007c578063a217fddf14610362578063a9059cbb14610380578063d547741f146103b0578063db1c13d8146103cc578063dd62ed3e146103ea578063f89817891461041a57610137565b80636290865d146102aa57806370a08231146102c857806391d14854146102f857806395d89b41146103285780639dc29fac1461034657610137565b8063248a9ca3116100ff578063248a9ca3146102085780632f2ff15d14610238578063313ce5671461025457806336568abe1461027257806340c10f191461028e57610137565b806301ffc9a71461013c57806306fdde031461016c578063095ea7b31461018a57806318160ddd146101ba57806323b872dd146101d8575b600080fd5b61015660048036038101906101519190611502565b610436565b604051610163919061154a565b60405180910390f35b6101746104b0565b60405161018191906115f5565b60405180910390f35b6101a4600480360381019061019f91906116ab565b610542565b6040516101b1919061154a565b60405180910390f35b6101c2610565565b6040516101cf91906116fa565b60405180910390f35b6101f260048036038101906101ed9190611715565b61056f565b6040516101ff919061154a565b60405180910390f35b610222600480360381019061021d919061179e565b61059e565b60405161022f91906117da565b60405180910390f35b610252600480360381019061024d91906117f5565b6105be565b005b61025c6105e0565b6040516102699190611851565b60405180910390f35b61028c600480360381019061028791906117f5565b6105e9565b005b6102a860048036038101906102a391906116ab565b610664565b005b6102b261069d565b6040516102bf91906118cb565b60405180910390f35b6102e260048036038101906102dd91906118e6565b6106c3565b6040516102ef91906116fa565b60405180910390f35b610312600480360381019061030d91906117f5565b61070b565b60405161031f919061154a565b60405180910390f35b610330610776565b60405161033d91906115f5565b60405180910390f35b610360600480360381019061035b91906116ab565b610808565b005b61036a610841565b60405161037791906117da565b60405180910390f35b61039a600480360381019061039591906116ab565b610848565b6040516103a7919061154a565b60405180910390f35b6103ca60048036038101906103c591906117f5565b61086b565b005b6103d461088d565b6040516103e191906117da565b60405180910390f35b61040460048036038101906103ff9190611913565b6108b1565b60405161041191906116fa565b60405180910390f35b610434600480360381019061042f91906118e6565b610938565b005b60007f7965db0b000000000000000000000000000000000000000000000000000000007bffffffffffffffffffffffffffffffffffffffffffffffffffffffff1916827bffffffffffffffffffffffffffffffffffffffffffffffffffffffff191614806104a957506104a8826109cd565b5b9050919050565b6060600380546104bf90611982565b80601f01602080910402602001604051908101604052809291908181526020018280546104eb90611982565b80156105385780601f1061050d57610100808354040283529160200191610538565b820191906000526020600020905b81548152906001019060200180831161051b57829003601f168201915b5050505050905090565b60008061054d610a37565b905061055a818585610a3f565b600191505092915050565b6000600254905090565b60008061057a610a37565b9050610587858285610a51565b610592858585610ae6565b60019150509392505050565b600060056000838152602001908152602001600020600101549050919050565b6105c78261059e565b6105d081610bda565b6105da8383610bee565b50505050565b60006012905090565b6105f1610a37565b73ffffffffffffffffffffffffffffffffffffffff168173ffffffffffffffffffffffffffffffffffffffff1614610655576040517f6697b23200000000000000000000000000000000000000000000000000000000815260040160405180910390fd5b61065f8282610ce0565b505050565b7f90601cb45097851a246a5f8a72fbb27b3ef393b2a92d8fdd7aa24b1be6b2ed3b61068e81610bda565b6106988383610dd3565b505050565b600660009054906101000a900473ffffffffffffffffffffffffffffffffffffffff1681565b60008060008373ffffffffffffffffffffffffffffffffffffffff1673ffffffffffffffffffffffffffffffffffffffff168152602001908152602001600020549050919050565b60006005600084815260200190815260200160002060000160008373ffffffffffffffffffffffffffffffffffffffff1673ffffffffffffffffffffffffffffffffffffffff16815260200190815260200160002060009054906101000a900460ff16905092915050565b60606004805461078590611982565b80601f01602080910402602001604051908101604052809291908181526020018280546107b190611982565b80156107fe5780601f106107d3576101008083540402835291602001916107fe565b820191906000526020600020905b8154815290600101906020018083116107e157829003601f168201915b5050505050905090565b7f90601cb45097851a246a5f8a72fbb27b3ef393b2a92d8fdd7aa24b1be6b2ed3b61083281610bda565b61083c8383610e55565b505050565b6000801b81565b600080610853610a37565b9050610860818585610ae6565b600191505092915050565b6108748261059e565b61087d81610bda565b6108878383610ce0565b50505050565b7f90601cb45097851a246a5f8a72fbb27b3ef393b2a92d8fdd7aa24b1be6b2ed3b81565b6000600160008473ffffffffffffffffffffffffffffffffffffffff1673ffffffffffffffffffffffffffffffffffffffff16815260200190815260200160002060008373ffffffffffffffffffffffffffffffffffffffff1673ffffffffffffffffffffffffffffffffffffffff16815260200190815260200160002054905092915050565b6000801b61094581610bda565b81600660006101000a81548173ffffffffffffffffffffffffffffffffffffffff021916908373ffffffffffffffffffffffffffffffffffffffff1602179055508173ffffffffffffffffffffffffffffffffffffffff167fa958a8141c83d69ebaaa9383a0cf588c2c4e6f8dc823573bb94ccc3e4848e7f760405160405180910390a25050565b60007f01ffc9a7000000000000000000000000000000000000000000000000000000007bffffffffffffffffffffffffffffffffffffffffffffffffffffffff1916827bffffffffffffffffffffffffffffffffffffffffffffffffffffffff1916149050919050565b600033905090565b610a4c8383836001610ed7565b505050565b6000610a5d84846108b1565b90507fffffffffffffffffffffffffffffffffffffffffffffffffffffffffffffffff811015610ae05781811015610ad0578281836040517ffb8f41b2000000000000000000000000000000000000000000000000000000008152600401610ac7939291906119c2565b60405180910390fd5b610adf84848484036000610ed7565b5b50505050565b600073ffffffffffffffffffffffffffffffffffffffff168373ffffffffffffffffffffffffffffffffffffffff1603610b585760006040517f96c6fd1e000000000000000000000000000000000000000000000000000000008152600401610b4f91906119f9565b60405180910390fd5b600073ffffffffffffffffffffffffffffffffffffffff168273ffffffffffffffffffffffffffffffffffffffff1603610bca5760006040517fec442f05000000000000000000000000000000000000000000000000000000008152600401610bc191906119f9565b60405180910390fd5b610bd58383836110ae565b505050565b610beb81610be6610a37565b611220565b50565b6000610bfa838361070b565b610cd55760016005600085815260200190815260200160002060000160008473ffffffffffffffffffffffffffffffffffffffff1673ffffffffffffffffffffffffffffffffffffffff16815260200190815260200160002060006101000a81548160ff021916908315150217905550610c72610a37565b73ffffffffffffffffffffffffffffffffffffffff168273ffffffffffffffffffffffffffffffffffffffff16847f2f8788117e7eff1d82e926ec794901d17c78024a50270940304540a733656f0d60405160405180910390a460019050610cda565b600090505b92915050565b6000610cec838361070b565b15610dc85760006005600085815260200190815260200160002060000160008473ffffffffffffffffffffffffffffffffffffffff1673ffffffffffffffffffffffffffffffffffffffff16815260200190815260200160002060006101000a81548160ff021916908315150217905550610d65610a37565b73ffffffffffffffffffffffffffffffffffffffff168273ffffffffffffffffffffffffffffffffffffffff16847ff6391f5c32d9c69d2a47ea670b442974b53935d1edc7fd64eb21e047a839171b60405160405180910390a460019050610dcd565b600090505b92915050565b600073ffffffffffffffffffffffffffffffffffffffff168273ffffffffffffffffffffffffffffffffffffffff1603610e455760006040517fec442f05000000000000000000000000000000000000000000000000000000008152600401610e3c91906119f9565b60405180910390fd5b610e51600083836110ae565b5050565b600073ffffffffffffffffffffffffffffffffffffffff168273ffffffffffffffffffffffffffffffffffffffff1603610ec75760006040517f96c6fd1e000000000000000000000000000000000000000000000000000000008152600401610ebe91906119f9565b60405180910390fd5b610ed3826000836110ae565b5050565b600073ffffffffffffffffffffffffffffffffffffffff168473ffffffffffffffffffffffffffffffffffffffff1603610f495760006040517fe602df05000000000000000000000000000000000000000000000000000000008152600401610f4091906119f9565b60405180910390fd5b600073ffffffffffffffffffffffffffffffffffffffff168373ffffffffffffffffffffffffffffffffffffffff1603610fbb5760006040517f94280d62000000000000000000000000000000000000000000000000000000008152600401610fb291906119f9565b60405180910390fd5b81600160008673ffffffffffffffffffffffffffffffffffffffff1673ffffffffffffffffffffffffffffffffffffffff16815260200190815260200160002060008573ffffffffffffffffffffffffffffffffffffffff1673ffffffffffffffffffffffffffffffffffffffff1681526020019081526020016000208190555080156110a8578273ffffffffffffffffffffffffffffffffffffffff168473ffffffffffffffffffffffffffffffffffffffff167f8c5be1e5ebec7d5bd14f71427d1e84f3dd0314c0f7b2291e5b200ac8c7c3b9258460405161109f91906116fa565b60405180910390a35b50505050565b600073ffffffffffffffffffffffffffffffffffffffff168373ffffffffffffffffffffffffffffffffffffffff16141580156111185750600073ffffffffffffffffffffffffffffffffffffffff168273ffffffffffffffffffffffffffffffffffffffff1614155b1561121057600080600660009054906101000a900473ffffffffffffffffffffffffffffffffffffffff1673ffffffffffffffffffffffffffffffffffffffff1663e46638e68686866040518463ffffffff1660e01b815260040161117f93929190611a14565b600060405180830381865afa15801561119c573d6000803e3d6000fd5b505050506040513d6000823e3d601f19601f820116820180604052508101906111c59190611b9d565b9150915081819061120c576040517f08c379a000000000000000000000000000000000000000000000000000000000815260040161120391906115f5565b60405180910390fd5b5050505b61121b838383611271565b505050565b61122a828261070b565b61126d5780826040517fe2517d3f000000000000000000000000000000000000000000000000000000008152600401611264929190611bf9565b60405180910390fd5b5050565b600073ffffffffffffffffffffffffffffffffffffffff168373ffffffffffffffffffffffffffffffffffffffff16036112c35780600260008282546112b79190611c51565b92505081905550611396565b60008060008573ffffffffffffffffffffffffffffffffffffffff1673ffffffffffffffffffffffffffffffffffffffff1681526020019081526020016000205490508181101561134f578381836040517fe450d38c000000000000000000000000000000000000000000000000000000008152600401611346939291906119c2565b60405180910390fd5b8181036000808673ffffffffffffffffffffffffffffffffffffffff1673ffffffffffffffffffffffffffffffffffffffff16815260200190815260200160002081905550505b600073ffffffffffffffffffffffffffffffffffffffff168273ffffffffffffffffffffffffffffffffffffffff16036113df578060026000828254039250508190555061142c565b806000808473ffffffffffffffffffffffffffffffffffffffff1673ffffffffffffffffffffffffffffffffffffffff168152602001908152602001600020600082825401925050819055505b8173ffffffffffffffffffffffffffffffffffffffff168373ffffffffffffffffffffffffffffffffffffffff167fddf252ad1be2c89b69c2b068fc378daa952ba7f163c4a11628f55a4df523b3ef8360405161148991906116fa565b60405180910390a3505050565b6000604051905090565b600080fd5b600080fd5b60007fffffffff0000000000000000000000000000000000000000000000000000000082169050919050565b6114df816114aa565b81146114ea57600080fd5b50565b6000813590506114fc816114d6565b92915050565b600060208284031215611518576115176114a0565b5b6000611526848285016114ed565b91505092915050565b60008115159050919050565b6115448161152f565b82525050565b600060208201905061155f600083018461153b565b92915050565b600081519050919050565b600082825260208201905092915050565b60005b8381101561159f578082015181840152602081019050611584565b60008484015250505050565b6000601f19601f8301169050919050565b60006115c782611565565b6115d18185611570565b93506115e1818560208601611581565b6115ea816115ab565b840191505092915050565b6000602082019050818103600083015261160f81846115bc565b905092915050565b600073ffffffffffffffffffffffffffffffffffffffff82169050919050565b600061164282611617565b9050919050565b61165281611637565b811461165d57600080fd5b50565b60008135905061166f81611649565b92915050565b6000819050919050565b61168881611675565b811461169357600080fd5b50565b6000813590506116a58161167f565b92915050565b600080604083850312156116c2576116c16114a0565b5b60006116d085828601611660565b92505060206116e185828601611696565b9150509250929050565b6116f481611675565b82525050565b600060208201905061170f60008301846116eb565b92915050565b60008060006060848603121561172e5761172d6114a0565b5b600061173c86828701611660565b935050602061174d86828701611660565b925050604061175e86828701611696565b9150509250925092565b6000819050919050565b61177b81611768565b811461178657600080fd5b50565b60008135905061179881611772565b92915050565b6000602082840312156117b4576117b36114a0565b5b60006117c284828501611789565b91505092915050565b6117d481611768565b82525050565b60006020820190506117ef60008301846117cb565b92915050565b6000806040838503121561180c5761180b6114a0565b5b600061181a85828601611789565b925050602061182b85828601611660565b9150509250929050565b600060ff82169050919050565b61184b81611835565b82525050565b60006020820190506118666000830184611842565b92915050565b6000819050919050565b600061189161188c61188784611617565b61186c565b611617565b9050919050565b60006118a382611876565b9050919050565b60006118b582611898565b9050919050565b6118c5816118aa565b82525050565b60006020820190506118e060008301846118bc565b92915050565b6000602082840312156118fc576118fb6114a0565b5b600061190a84828501611660565b91505092915050565b6000806040838503121561192a576119296114a0565b5b600061193885828601611660565b925050602061194985828601611660565b9150509250929050565b7f4e487b7100000000000000000000000000000000000000000000000000000000600052602260045260246000fd5b6000600282049050600182168061199a57607f821691505b6020821081036119ad576119ac611953565b5b50919050565b6119bc81611637565b82525050565b60006060820190506119d760008301866119b3565b6119e460208301856116eb565b6119f160408301846116eb565b949350505050565b6000602082019050611a0e60008301846119b3565b92915050565b6000606082019050611a2960008301866119b3565b611a3660208301856119b3565b611a4360408301846116eb565b949350505050565b611a548161152f565b8114611a5f57600080fd5b50565b600081519050611a7181611a4b565b92915050565b600080fd5b600080fd5b7f4e487b7100000000000000000000000000000000000000000000000000000000600052604160045260246000fd5b611ab9826115ab565b810181811067ffffffffffffffff82111715611ad857611ad7611a81565b5b80604052505050565b6000611aeb611496565b9050611af78282611ab0565b919050565b600067ffffffffffffffff821115611b1757611b16611a81565b5b611b20826115ab565b9050602081019050919050565b6000611b40611b3b84611afc565b611ae1565b905082815260208101848484011115611b5c57611b5b611a7c565b5b611b67848285611581565b509392505050565b600082601f830112611b8457611b83611a77565b5b8151611b94848260208601611b2d565b91505092915050565b60008060408385031215611bb457611bb36114a0565b5b6000611bc285828601611a62565b925050602083015167ffffffffffffffff811115611be357611be26114a5565b5b611bef85828601611b6f565b9150509250929050565b6000604082019050611c0e60008301856119b3565b611c1b60208301846117cb565b9392505050565b7f4e487b7100000000000000000000000000000000000000000000000000000000600052601160045260246000fd5b6000611c5c82611675565b9150611c6783611675565b9250828201905080821115611c7f57611c7e611c22565b5b9291505056fea26469706673582212205c579038a81151315488810ab0b3a68499f818ba1e8afff0b03af03d02f3121c64736f6c63430008180033",
  "linkReferences": {},
  "deployedLinkReferences": {}
}